:100000000C9463000C948B000C948B000C948B006C
:100010000C948B000C948B000C948B000C948B0034
:100020000C948B000C948B000C948B000C948B0024
:100030000C948B000C948B000C948B000C948B0014
:100040000C94C3040C948B000C9433050C940D0594
:100050000C948B000C948B000C948B000C948B00F4
:100060000C948B000C948B000000000023002600F1
:10007000290000000000240027002A0000000008DA
:10008000000201000003040700000000000000005F
:10009000010204081020408001020408102001021F
:1000A0000408102000000000250028002B00040494
:1000B0000404040404040202020202020303030310
:1000C0000303AA05F10911241FBECFEFD8E0DEBF5C
:1000D000CDBF12E0A0E0B1E0E6E6F9E102C0059094
:1000E0000D92AE33B107D9F723E0AEE3B2E001C021
:1000F0001D92A333B207E1F710E0C2E6D0E004C0DE
:100100002197FE010E946B0BC136D107C9F70E94EF
:100110004C060C94A60C0C9400004F925F926F92C8
:100120007F928F929F92AF92BF92FF9220911B037A
:1001300030911C038217930708F043C02B016624FB
:100140007724852E962EA72EBB24B82DA42F209180
:100150002103F42C222391F0E22FF0E0E49DD00162
:10016000E59DB00DF49DB00D1124FB2E289D40019E
:100170001124B92D249F90011124A32FE09127036E
:10018000209122033091230350912403E51323C0CF
:10019000FC01EE0FFF1F8E0F9F1F820F931FE09138
:1001A0002403E80FF92FF11DF082E0912503E80FF9
:1001B000F92FF11DB08320912603820F911DFC01C0
:1001C000A083FF90BF90AF909F908F907F906F9093
:1001D0005F904F900895880F991F880F991F820F85
:1001E000931FE80FF92FF11D1082D9CF90E0FC0189
:1001F000E458FF4F2491FC01E057FF4F3491FC017C
:10020000E255FF4FE491EE23C9F0222339F0233069
:1002100001F1A8F4213019F1223029F1F0E0EE0FBC
:10022000FF1FEC55FF4FA591B4918FB7F894EC9157
:10023000611126C030953E233C938FBF089527302F
:10024000A9F02830C9F0243049F7809180008F7DD3
:1002500003C0809180008F7780938000DFCF84B5CA
:100260008F7784BDDBCF84B58F7DFBCF8091B000CD
:100270008F778093B000D2CF8091B0008F7DF9CF7F
:100280003E2BDACFCF93DF9390E0FC01E057FF4F96
:10029000249182559F4FFC0184918823D1F090E0F6
:1002A000880F991FFC01EE58FF4FA591B491FC01F6
:1002B000EC55FF4FC591D49161110EC09FB7F894D2
:1002C0008C91E22FE0958E238C932881E223E883A2
:1002D0009FBFDF91CF9108958FB7F894EC91E22BF7
:1002E000EC938FBFF6CF3FB7F8948091780290914E
:1002F0007902A0917A02B0917B0226B5A89B05C035
:100300002F3F19F00196A11DB11D3FBFBA2FA92F94
:10031000982F8827BC01CD01620F711D811D911D91
:1003200042E0660F771F881F991F4A95D1F70895FD
:100330000F931F93CF93DF93CDB7DEB729970FB6F7
:10034000F894DEBF0FBECDBF8091220390912303AE
:10035000892B09F47CC00E9473010091280310913D
:10036000290320912A0330912B036017710782071C
:10037000930740F4609328037093290380932A0322
:1003800090932B03009128031091290320912A03B5
:1003900030912B03601B710B820B930B6C327140FD
:1003A00081059105C0F2F89480911D0390911E0380
:1003B0009A838983E0912203F0912303DF01119650
:1003C0008081898790911903E0912C03F0912D038E
:1003D00080912E03992309F445C09081982B98872A
:1003E0009081809589238F838F818C8388E08B8394
:1003F00058856F8149853B812C8189819A81508301
:1004000047FD252F3A952083262F39F0441F00C041
:1004100000006083000000C0F2CF38E04D9160839F
:100420000000019761F7F0932D03E0932C034987B7
:100430003B832C839A83898378940E947301609311
:1004400028037093290380932A0390932B03299602
:100450000FB6F894DEBF0FBECDBFDF91CF911F91D5
:100460000F9108959081982B98879081809589238A
:100470008F838F818E8388E08D8358856F81498536
:100480003D812E8189819A81508347FD252F00C0AF
:1004900000C0208300C000C000C000C000C0608356
:1004A0000000262F3A9541F0441F000000C000C014
:1004B00000C000C000C0E8CF38E04D9100C06083AC
:1004C00000C0019709F7F0932D03E0932C034987AF
:1004D0003D832E83AFCFAF92BF92CF92DF92EF9248
:1004E000FF920F931F93CF93DF936C017B018B01DE
:1004F000040F151FEB015E01AE18BF08C017D1072E
:1005000059F06991D601ED91FC910190F081E02DB7
:10051000C6010995892B79F7C501DF91CF911F910C
:100520000F91FF90EF90DF90CF90BF90AF90089524
:10053000FC01538D448D252F30E0842F90E0821BE9
:10054000930B541710F0CF96089501970895FC016E
:10055000918D828D981761F0A28DAE0FBF2FB11DC6
:100560005D968C91928D9F5F9F73928F90E008951E
:100570008FEF9FEF0895FC01918D828D981731F0D8
:10058000828DE80FF11D858D90E008958FEF9FEF2C
:100590000895FC01918D228D892F90E0805C9F4F02
:1005A000821B91098F73992708958CE792E00E942E
:1005B000C90221E0892B09F420E0822F089580E010
:1005C00090E0892B29F00E94D50281110C94000043
:1005D0000895FC01A48DA80FB92FB11DA35ABF4FD8
:1005E0002C91848D90E001968F739927848FA68932
:1005F000B7892C93A089B1898C91837080648C9386
:10060000938D848D981306C00288F389E02D808134
:100610008F7D80830895EF92FF920F931F93CF9366
:10062000DF93EC0181E0888F9B8D8C8D98131AC02D
:10063000E889F989808185FF15C09FB7F894EE8914
:10064000FF896083E889F989808183708064808371
:100650009FBF81E090E0DF91CF911F910F91FF90BC
:10066000EF900895F62E0B8D10E00F5F1F4F0F7364
:100670001127E02E8C8D8E110CC00FB607FCFACF1F
:10068000E889F989808185FFF5CFCE010E94E902D2
:10069000F1CFEB8DEC0FFD2FF11DE35AFF4FF082F0
:1006A0009FB7F8940B8FEA89FB8980818062CFCF56
:1006B000CF93DF93EC01888D8823B9F0AA89BB8999
:1006C000E889F9898C9185FD03C0808186FD0DC084
:1006D0000FB607FCF7CF8C9185FFF2CF808185FFA5
:1006E000EDCFCE010E94E902E9CFDF91CF910895CD
:1006F000CF92DF92EF92FF92CF93DF936B017C0159
:10070000D0E0C0E080911B0390911C03C817D9076B
:1007100048F4B701A601CE010E948D000E94980105
:100720002196F0CFDF91CF91FF90EF90DF90CF90A7
:1007300008958F929F92AF92BF92CF92DF92EF92E5
:10074000FF92CF93DF93C0915002D0915102C0909D
:100750004002D0904102E0904202F09043024901F1
:100760005A018C189D08AE08BF08750164012091DC
:100770001B0330911C03C217D30738F522E3C216BE
:10078000D104E104F104B0F0AB01BC01CE010E9440
:100790008D000E9498012196D0935102C09350027F
:1007A00088E8C81683E1D806E104F10418F081E076
:1007B00080930701DF91CF91FF90EF90DF90CF9072
:1007C000BF90AF909F908F90089581E08093080133
:1007D0001092510210925002E3CFCF93DF93FC01AD
:1007E00001900020E9F73197AF01481B590BBC017C
:1007F0008CE792E00E946B02EC0142E050E063E47F
:1008000071E08CE792E00E946B028C0F9D1FDF91DC
:10081000CF910895CF93DF9366E471E089E091E092
:100820000E94960CEC01892B99F480911B03909106
:100830001C0396958795C817D90708F09DC04FEF00
:100840005FEF6FEF70E0CE010E948D002196EDCF3B
:100850006BEA71E089E091E00E94960CEC01892B33
:1008600099F480911B0390911C0396958795C81766
:10087000D90708F081C040E05FEF60E070E0CE0192
:100880000E948D002196EDCF6BE471E089E091E04C
:100890000E94960CEC01892B09F044C080914E0215
:1008A00090914F028231910599F480911B039091B0
:1008B0001C0396958795C817D90708F05DC040E0DE
:1008C00050E06FEF70E0CE010E948D002196EDCFD9
:1008D0008C30910599F480911B0390911C0396959F
:1008E0008795C817D90708F047C040E05CE46FEF70
:1008F00070E0CE010E948D002196EDCF0697E1F5C4
:1009000080911B0390911C0396958795C817D90772
:1009100098F540E059E96FEF70E0CE010E948D003C
:100920002196EECF80912A01D0E0C0E0882391F09B
:1009300080911B0390911C0396958795C817D90742
:10094000D8F44FEF50E060E070E0CE010E948D00DF
:100950002196EECF80911B0390911C03969587956D
:10096000C817D90748F440E050E06FEF70E0CE01BF
:100970000E948D002196EECF0E94980110924802AD
:10098000DF91CF9108951F920F920FB60F9211240D
:100990002F933F938F939F93AF93BF938091740254
:1009A00090917502A0917602B09177023091730216
:1009B00023E0230F2D3758F50196A11DB11D20937B
:1009C00073028093740290937502A0937602B093A1
:1009D00077028091780290917902A0917A02B09189
:1009E0007B020196A11DB11D80937802909379023C
:1009F000A0937A02B0937B02BF91AF919F918F91A8
:100A00003F912F910F900FBE0F901F90189526E8E1
:100A1000230F0296A11DB11DD2CF1F920F920FB6C8
:100A20000F9211242F933F934F935F936F937F9374
:100A30008F939F93AF93BF93EF93FF938CE792E0D5
:100A40000E94E902FF91EF91BF91AF919F918F9129
:100A50007F916F915F914F913F912F910F900FBEBA
:100A60000F901F9018951F920F920FB60F9211249E
:100A70002F938F939F93EF93FF93E0918C02F091CC
:100A80008D028081E0919202F091930282FD1BC061
:100A90009081809195028F5F8F73209196028217CB
:100AA00041F0E0919502F0E0E458FD4F958F80937E
:100AB0009502FF91EF919F918F912F910F900FBE13
:100AC0000F901F9018958081F4CFCF92DF92EF9214
:100AD000FF920F931F93E82FF92F05C001501109C2
:100AE0002109310961F1908196239417B9F305C06A
:100AF000015011092109310911F1908196239413B4
:100B0000F7CFC12CD12CE12CF12C0AC08FEFC81AE1
:100B1000D80AE80AF80A0C151D052E053F0579F0DC
:100B200080818623841791F36C2D7D2D8E2D9F2D32
:100B30001F910F91FF90EF90DF90CF90089560E0AC
:100B400070E080E090E01F910F91FF90EF90DF90B8
:100B5000CF90089510927F0210927E0288EE93E06B
:100B6000A0E0B0E08093800290938102A093820283
:100B7000B093830285E391E090937D0280937C02A1
:100B800085EC90E0909389028093880284EC90E059
:100B900090938B0280938A0280EC90E090938D0278
:100BA00080938C0281EC90E090938F0280938E0270
:100BB00082EC90E0909391028093900286EC90E01A
:100BC0009093930280939202109295021092960253
:100BD000109297021092980210921A031092210319
:100BE000109228031092290310922A0310922B03CB
:100BF00081E080932703809324031092250392E0E1
:100C000090932603809319038AE290E090931E0349
:100C100080931D030E94710B909323038093220302
:100C2000009789F12AE2FC0111922A95E9F78EE0FA
:100C300090E090931C0380931B0382E090E09093DC
:100C4000200380931F0380911A03882341F061E001
:100C500082E00E94420160E082E00E94F600E0EB48
:100C6000F0E0E491F0E0EE0FFF1FEC55FF4F8591AF
:100C7000949190932D0380932C03E2E9F0E0E491AA
:100C8000E0932E03089510921E0310921D031092FC
:100C90001C0310921B03D1CF789484B5826084BD6D
:100CA00084B5816084BD85B5826085BD85B5816070
:100CB00085BD80916E00816080936E0010928100EE
:100CC00080918100826080938100809181008160A9
:100CD000809381008091800081608093800080916A
:100CE000B10084608093B1008091B00081608093F6
:100CF000B00080917A00846080937A0080917A00BD
:100D0000826080937A0080917A00816080937A007B
:100D100080917A00806880937A001092C100E091FF
:100D20008C02F0918D0282E08083E0918C02F09140
:100D30008D021082E0918802F09189021082E09188
:100D40008A02F0918B0280E1808310929402E091FC
:100D50009002F091910286E08083E0918E02F09102
:100D60008F02808180618083E0918E02F0918F02FA
:100D7000808188608083E0918E02F0918F02808173
:100D800080688083E0918E02F0918F0280818F7D58
:100D9000808380911F039091200397FD34C061E010
:100DA0000E94420160E080911F030E94F60081E0F2
:100DB00080931A030E94980120912103222359F164
:100DC000E0902203F0902303215001F130E050E045
:100DD00040E06FEF7FEF80E090E00E942A0BF70188
:100DE00040911D0350911E03CF018E199F09841756
:100DF000950778F44081429FC001439F900D1124D4
:100E000090833196EDCF10921A03D4CF30E020E0DA
:100E1000E6CF1092210361E083E00E94420160E08E
:100E200084E00E9442016FEF70E080E090E00E9459
:100E3000780350E0852E50E0952EC1E062E1A62EA9
:100E4000B12C0E9473016B017C0149E1442E512CAD
:100E5000612C712C0E9473016C197D098E099F0908
:100E6000683E734081059105A8F321E0421A5108BC
:100E70006108710888EEC80E83E0D81EE11CF11CE1
:100E8000411451046104710429F78CE792E00E9437
:100E9000C902181619060CF022C18CE792E00E94D4
:100EA000A70220913E0230913F02F901EE5AFD4F18
:100EB0008A3009F03DC2121613060CF039C21082B6
:100EC00010923F0210923E0264E571E082E592E0EA
:100ED0000E94960C892B71F4C0932A016FEF70E089
:100EE00080E090E00E9478036CE671E089E091E098
:100EF0000E949F0C61E871E082E592E00E94960CEE
:100F0000892B71F410922A0160E070E08FEF90E07D
:100F10000E9478036CE671E089E091E00E949F0CEA
:100F200068E971E082E592E00E94960C892BC9F491
:100F30001092510210925002C0930801C093070111
:100F40006BE971E089E091E00E949F0C80912A0199
:100F5000882309F4F5C16FEF70E080E090E00E9413
:100F6000780368EA71E082E592E00E94960C892B92
:100F700061F460E07FEF80E090E00E9478036BEA2C
:100F800071E089E091E00E949F0C67EB71E082E5DF
:100F900092E00E94960C892B81F46BE471E089E069
:100FA00091E00E949F0CB0924F02A0924E0260E02E
:100FB00070E08FEF90E00E94780368EC71E082E5CA
:100FC00092E00E94960C892B91F46BE471E089E029
:100FD00091E00E949F0C8CE090E090934F028093F0
:100FE0004E0260E07CE48FEF90E00E9478036BEDAE
:100FF00071E082E592E00E94960C892B91F46BE4FB
:1010000071E089E091E00E949F0CE6E0F0E0F0934F
:101010004F02E0934E0260E079E98FEF90E00E948A
:10102000780366E471E082E592E00E94960C892BD9
:1010300061F466E471E089E091E00E949F0C6FEF3B
:101040007FEF8FEF90E00E9478036BEE71E082E516
:1010500092E00E94960C892B31F46BEE71E089E0EE
:1010600091E00E949F0C63EF71E082E592E00E94A4
:10107000960C892B21F480E091E00E94ED036FEF44
:1010800071E082E592E00E94960C892B11F4C093E6
:101090004D026BE072E082E592E00E94960C892B93
:1010A00021F410924D020E940A0466E172E082E58A
:1010B00092E00E94960C892B91F410924D020E94AE
:1010C0000A04C0932A016FEF70E080E090E00E9474
:1010D000780361E272E089E091E00E949F0C61E098
:1010E00083E00E94F60083E290E00197F1F760E070
:1010F00083E00E94F600E4E9F0E06491E2EBF0E0C6
:101100008491E82FF0E0EE0FFF1FE859FF4F859123
:10111000949100E412E42FE030E0462F0E94650530
:10112000611571058105910529F06F5F7F4F8F4F24
:101130009F4F9F700E94780A20E030E044E153E422
:101140000E94060A2B013C01409244025092450243
:1011500060924602709247026BE971E089E091E08B
:101160000E94960C892B41F061E272E089E091E0E7
:101170000E94960C892BB9F53090080120E030E0F0
:1011800040E051E4C301B2010E94010A18160CF4B8
:10119000E1C0332009F4E4C080910701882309F4F9
:1011A000DBC02FB7F8948091740290917502A091E2
:1011B0007602B09177022FBF809340029093410254
:1011C000A0934202B093430280912A01882309F43C
:1011D000BCC010922A0184E991E00E94ED031092B4
:1011E0000801109207016BEA71E089E091E00E942A
:1011F000960C892B01F520E030E040E051E460914D
:1012000044027091450280914602909147020E94EB
:10121000010A181684F08DE292E00E94ED036FEF50
:101220007FEF8FEF90E00E94780366E471E089E041
:1012300091E00E949F0C6BE471E089E091E00E94D4
:10124000960C892BC9F560904E0270904F02209049
:101250004402309045024090460250904702B3014C
:1012600066507109072E000C880B990B0E947A0AB0
:10127000A20191010E94010A87FF1EC0B301770CF1
:10128000880B990B0E947A0A9B01AC01C201B10143
:101290000E94010A181684F086E392E00E94ED0392
:1012A0006FEF7FEF8FEF90E00E94780366E471E0CC
:1012B00089E091E00E949F0C80914D02882309F4FF
:1012C00081C02FB7F8948091740290917502A0911B
:1012D0007602B09177022FBF4091490250914A02A5
:1012E00060914B0270914C02841B950BA60BB70BBF
:1012F000843F9140A105B10508F464C08091480283
:1013000081116CC0712C612C80911B0390911C0386
:10131000969587956816790608F03DC04FEF50E026
:10132000BA01C3010E948D002FEF621A720AECCF3E
:1013300080832F5F3F4F30933F0220933E02A5CD25
:1013400060E070E08FEF90E00ACEC0932A0187E65C
:1013500091E043CF332021F080910701811143CFE9
:101360008FB7F89420917402309175024091760203
:10137000509177028FBF80912A01811107C060E0F0
:1013800070E08FEF90E00E9499032DCF6FEF70E037
:1013900080E090E0F8CF0E949801C09348022FB7F8
:1013A000F8948091740290917502A0917602B091A8
:1013B00077022FBF8093490290934A02A0934B0279
:1013C000B0934C028114910409F43BCD0E94D502E4
:1013D000882309F436CD0E94000033CD0E940A0410
:1013E000DECF80912203909123030E940D0C809107
:1013F0001F039091200397FD03C060E00C9442010D
:1014000008950E94B50A08F481E008950E941A0A1E
:101410000C94F00A0E94E90A58F00E94E20A40F097
:1014200029F45F3F29F00C94D90A51110C94240B34
:101430000C94DF0A0E94010B68F39923B1F3552342
:1014400091F3951B550BBB27AA27621773078407D7
:1014500038F09F5F5F4F220F331F441FAA1FA9F36D
:1014600035D00E2E3AF0E0E832D091505040E6955B
:10147000001CCAF72BD0FE2F29D0660F771F881FBC
:10148000BB1F261737074807AB07B0E809F0BB0BAF
:10149000802DBF01FF2793585F4F3AF09E3F5105C3
:1014A00078F00C94D90A0C94240B5F3FE4F3983E37
:1014B000D4F3869577956795B795F7959F5FC9F7AC
:1014C000880F911D9695879597F90895E1E0660F2D
:1014D000771F881FBB1F621773078407BA0720F0A6
:1014E000621B730B840BBA0BEE1F88F7E09508950F
:1014F000E89409C097FB3EF49095809570956195AE
:101500007F4F8F4F9F4F9923A9F0F92F96E9BB2763
:101510009395F695879577956795B795F111F8CFDF
:10152000FAF4BB0F11F460FF1BC06F5F7F4F8F4F4A
:101530009F4F16C0882311F096E911C0772321F040
:101540009EE8872F762F05C0662371F096E8862FD8
:1015500070E060E02AF09A95660F771F881FDAF72F
:10156000880F9695879597F90895990F0008550F5C
:10157000AA0BE0E8FEEF16161706E807F907C0F019
:1015800012161306E407F50798F0621B730B840B21
:10159000950B39F40A2661F0232B242B252B21F4FB
:1015A00008950A2609F4A140A6958FEF811D811D9B
:1015B000089597F99F6780E870E060E008959FEFD5
:1015C00080EC089500240A941616170618060906DA
:1015D000089500240A9412161306140605060895A9
:1015E000092E0394000C11F4882352F0BB0F40F431
:1015F000BF2B11F460FF04C06F5F7F4F8F4F9F4F71
:10160000089557FD9058440F551F59F05F3F71F0F2
:101610004795880F97FB991F61F09F3F79F0879559
:101620000895121613061406551FF2CF4695F1DFE2
:1016300008C0161617061806991FF1CF8695710572
:10164000610508940895E894BB2766277727CB01A6
:1016500097F90895052E97FB1EF400940E94410B04
:1016600057FD07D00E94490B07FC03D04EF40C94A1
:10167000410B50954095309521953F4F4F4F5F4F0F
:10168000089590958095709561957F4F8F4F9F4FEE
:101690000895A1E21A2EAA1BBB1BFD010DC0AA1FB3
:1016A000BB1FEE1FFF1FA217B307E407F50720F0CB
:1016B000A21BB30BE40BF50B661F771F881F991F46
:1016C0001A9469F760957095809590959B01AC018F
:1016D000BD01CF010895EE0FFF1F0590F491E02D9D
:1016E00009940F931F93CF93DF938230910510F4E9
:1016F00082E090E0E0913103F091320330E020E0AD
:10170000B0E0A0E0309799F42115310509F44AC002
:10171000281B390B24303105D8F58A819B8161154E
:10172000710589F1FB0193838283FE0111C0408121
:1017300051810281138148175907E0F04817590772
:1017400099F4109761F012960C93129713961C93CC
:101750003296CF01DF91CF911F910F9108950093A1
:10176000310310933203F4CF2115310551F04217A4
:10177000530738F0A901DB019A01BD01DF01F8012F
:10178000C1CFEF01F9CF9093320380933103CDCFD6
:10179000FE01E20FF31F81939193225031093983A7
:1017A0002883D7CF20912F0330913003232B41F48E
:1017B00020912D0130912E013093300320932F037F
:1017C00020912B0130912C012115310541F42DB7C9
:1017D0003EB740912F0150913001241B350BE09111
:1017E0002F03F0913003E217F307A0F42E1B3F0BF9
:1017F0002817390778F0AC014E5F5F4F2417350783
:1018000048F04E0F5F1F5093300340932F03819396
:1018100091939FCFF0E0E0E09CCFCF93DF930097D0
:10182000E9F0FC01329713821282A0913103B0914A
:101830003203ED0130E020E01097A1F420813181E6
:10184000820F931F20912F033091300328173907FF
:1018500009F061C0F0933003E0932F03DF91CF9143
:101860000895EA01CE17DF07E8F54A815B819E0102
:1018700041155105B1F7E901FB83EA83499159917B
:10188000C40FD51FEC17FD0761F48081918102968A
:10189000840F951FE90199838883828193819B83BB
:1018A0008A83F0E0E0E012968D919C911397009767
:1018B000B9F52D913C911197CD010296820F931F9E
:1018C00020912F03309130032817390739F63097CC
:1018D00051F51092320310923103B0933003A0936C
:1018E0002F03BCCFD383C28340815181840F951FC6
:1018F000C817D90761F44E5F5F4F88819981480FFF
:10190000591F518340838A819B8193838283211550
:10191000310509F0B0CFF0933203E09331039ECF4D
:10192000FD01DC01C0CF13821282D7CFFB01DC01A5
:101930008D91019080190110D9F3990B0895FB0145
:10194000DC0101900D920020E1F7089510E0C2E65D
:10195000D0E004C0FE010E946B0B2196C336D10774
:06196000C9F7F894FFCF67
:1019660076302E312E36000101556E636F6E6E6530
:1019760063746564000000000000000000000000C1
:10198600000000000000000000000100003303809A
:1019960000000000000B036B0298025803C902A75F
:1019A60002BB020D0A0049646C6500416C746974DF
:1019B60075646500436170747572655F466C616736
:1019C6005F53746172745F426C7565004361707435
:1019D6007572655F466C61675F57616974696E67AA
:1019E60000436170747572655F466C61675F53741E
:1019F6006172745F52656400474D5F436170747530
:101A060072655F466C616700474D5F5761636B5F48
:101A1600415F4D6F6C6500474D5F416C746974752D
:101A260064655F4869676800474D5F416C74697417
:101A36007564655F4D656469756D00474D5F416C02
:101A46007469747564655F4C6F770053746F70705A
:101A56006564004765745F56657273696F6E0053FF
:101A6600746172745F426C696E6B0053746F705F61
:101A7600426C696E6B00446973636F6E6E65637466
:101A860000556E636F6E6E656374656400574D5FD7
:0E1A9600506F696E7400415F506F696E74008E
:00000001FF
