:100000000C9463000C948B000C948B000C948B006C
:100010000C948B000C948B000C948B000C948B0034
:100020000C948B000C948B000C948B000C948B0024
:100030000C948B000C948B000C948B000C948B0014
:100040000C94C3040C948B000C9433050C940D0594
:100050000C948B000C948B000C948B000C948B00F4
:100060000C948B000C948B000000000023002600F1
:10007000290000000000240027002A0000000008DA
:10008000000201000003040700000000000000005F
:10009000010204081020408001020408102001021F
:1000A0000408102000000000250028002B00040494
:1000B0000404040404040202020202020303030310
:1000C0000303AA05DD0911241FBECFEFD8E0DEBF70
:1000D000CDBF12E0A0E0B1E0EEE3F9E102C005908F
:1000E0000D92AA32B107D9F723E0AAE2B2E001C02B
:1000F0001D92AF31B207E1F710E0C2E6D0E004C0D4
:100100002197FE010E94570BC136D107C9F70E9403
:100110004C060C94920C0C9400004F925F926F92DC
:100120007F928F929F92AF92BF92FF92209107038E
:10013000309108038217930708F043C02B0166240F
:100140007724852E962EA72EBB24B82DA42F209180
:100150000D03F42C222391F0E22FF0E0E49DD00176
:10016000E59DB00DF49DB00D1124FB2E289D40019E
:100170001124B92D249F90011124A32FE091130382
:1001800020910E0330910F0350911003E51323C00B
:10019000FC01EE0FFF1F8E0F9F1F820F931FE09138
:1001A0001003E80FF92FF11DF082E0911103E80F21
:1001B000F92FF11DB08320911203820F911DFC01D4
:1001C000A083FF90BF90AF909F908F907F906F9093
:1001D0005F904F900895880F991F880F991F820F85
:1001E000931FE80FF92FF11D1082D9CF90E0FC0189
:1001F000E458FF4F2491FC01E057FF4F3491FC017C
:10020000E255FF4FE491EE23C9F0222339F0233069
:1002100001F1A8F4213019F1223029F1F0E0EE0FBC
:10022000FF1FEC55FF4FA591B4918FB7F894EC9157
:10023000611126C030953E233C938FBF089527302F
:10024000A9F02830C9F0243049F7809180008F7DD3
:1002500003C0809180008F7780938000DFCF84B5CA
:100260008F7784BDDBCF84B58F7DFBCF8091B000CD
:100270008F778093B000D2CF8091B0008F7DF9CF7F
:100280003E2BDACFCF93DF9390E0FC01E057FF4F96
:10029000249182559F4FFC0184918823D1F090E0F6
:1002A000880F991FFC01EE58FF4FA591B491FC01F6
:1002B000EC55FF4FC591D49161110EC09FB7F894D2
:1002C0008C91E22FE0958E238C932881E223E883A2
:1002D0009FBFDF91CF9108958FB7F894EC91E22BF7
:1002E000EC938FBFF6CF3FB7F89480916402909162
:1002F0006502A0916602B091670226B5A89B05C071
:100300002F3F19F00196A11DB11D3FBFBA2FA92F94
:10031000982F8827BC01CD01620F711D811D911D91
:1003200042E0660F771F881F991F4A95D1F70895FD
:100330000F931F93CF93DF93CDB7DEB729970FB6F7
:10034000F894DEBF0FBECDBF80910E0390910F03D6
:10035000892B09F47CC00E94730100911403109151
:100360001503209116033091170360177107820758
:10037000930740F46093140370931503809316035E
:100380009093170300911403109115032091160305
:1003900030911703601B710B820B930B6C32714011
:1003A00081059105C0F2F8948091090390910A03A8
:1003B0009A838983E0910E03F0910F03DF01119678
:1003C0008081898790910503E0911803F0911903CA
:1003D00080911A03992309F445C09081982B98873E
:1003E0009081809589238F838F818C8388E08B8394
:1003F00058856F8149853B812C8189819A81508301
:1004000047FD252F3A952083262F39F0441F00C041
:1004100000006083000000C0F2CF38E04D9160839F
:100420000000019761F7F0931903E09318034987DF
:100430003B832C839A83898378940E947301609311
:100440001403709315038093160390931703299652
:100450000FB6F894DEBF0FBECDBFDF91CF911F91D5
:100460000F9108959081982B98879081809589238A
:100470008F838F818E8388E08D8358856F81498536
:100480003D812E8189819A81508347FD252F00C0AF
:1004900000C0208300C000C000C000C000C0608356
:1004A0000000262F3A9541F0441F000000C000C014
:1004B00000C000C000C0E8CF38E04D9100C06083AC
:1004C00000C0019709F7F0931903E09318034987D7
:1004D0003D832E83AFCFAF92BF92CF92DF92EF9248
:1004E000FF920F931F93CF93DF936C017B018B01DE
:1004F000040F151FEB015E01AE18BF08C017D1072E
:1005000059F06991D601ED91FC910190F081E02DB7
:10051000C6010995892B79F7C501DF91CF911F910C
:100520000F91FF90EF90DF90CF90BF90AF90089524
:10053000FC01538D448D252F30E0842F90E0821BE9
:10054000930B541710F0CF96089501970895FC016E
:10055000918D828D981761F0A28DAE0FBF2FB11DC6
:100560005D968C91928D9F5F9F73928F90E008951E
:100570008FEF9FEF0895FC01918D828D981731F0D8
:10058000828DE80FF11D858D90E008958FEF9FEF2C
:100590000895FC01918D228D892F90E0805C9F4F02
:1005A000821B91098F739927089588E692E00E9433
:1005B000C90221E0892B09F420E0822F089580E010
:1005C00090E0892B29F00E94D50281110C94000043
:1005D0000895FC01A48DA80FB92FB11DA35ABF4FD8
:1005E0002C91848D90E001968F739927848FA68932
:1005F000B7892C93A089B1898C91837080648C9386
:10060000938D848D981306C00288F389E02D808134
:100610008F7D80830895EF92FF920F931F93CF9366
:10062000DF93EC0181E0888F9B8D8C8D98131AC02D
:10063000E889F989808185FF15C09FB7F894EE8914
:10064000FF896083E889F989808183708064808371
:100650009FBF81E090E0DF91CF911F910F91FF90BC
:10066000EF900895F62E0B8D10E00F5F1F4F0F7364
:100670001127E02E8C8D8E110CC00FB607FCFACF1F
:10068000E889F989808185FFF5CFCE010E94E902D2
:10069000F1CFEB8DEC0FFD2FF11DE35AFF4FF082F0
:1006A0009FB7F8940B8FEA89FB8980818062CFCF56
:1006B000CF93DF93EC01888D8823B9F0AA89BB8999
:1006C000E889F9898C9185FD03C0808186FD0DC084
:1006D0000FB607FCF7CF8C9185FFF2CF808185FFA5
:1006E000EDCFCE010E94E902E9CFDF91CF910895CD
:1006F000CF92DF92EF92FF92CF93DF936B017C0159
:10070000D0E0C0E08091070390910803C817D90793
:1007100048F4B701A601CE010E948D000E94980105
:100720002196F0CFDF91CF91FF90EF90DF90CF90A7
:1007300008958F929F92AF92BF92CF92DF92EF92E5
:10074000FF92CF93DF93C0912A02D0912B02C090E9
:100750002E02D0902F02E0903002F0903102490139
:100760005A018C189D08AE08BF08750164012091DC
:10077000070330910803C217D30738F522E3C216E6
:10078000D104E104F104B0F0AB01BC01CE010E9440
:100790008D000E9498012196D0932B02C0932A02CB
:1007A00088E8C81683E1D806E104F10418F081E076
:1007B00080930001DF91CF91FF90EF90DF90CF9079
:1007C000BF90AF909F908F90089581E0809301013A
:1007D00010922B0210922A02E3CFCF93DF93FC01F9
:1007E00001900020E9F73197AF01481B590BBC017C
:1007F00088E692E00E946B02EC0142E050E063E484
:1008000071E088E692E00E946B028C0F9D1FDF91E1
:10081000CF910895CF93DF9366E471E089E091E092
:100820000E94820CEC01892B99F48091070390912E
:10083000080396958795C817D90708F09DC04FEF14
:100840005FEF6FEF70E0CE010E948D002196EDCF3B
:1008500066E971E089E091E00E94820CEC01892B4D
:1008600099F4809107039091080396958795C8178E
:10087000D90708F081C040E05FEF60E070E0CE0192
:100880000E948D002196EDCF6BE471E089E091E04C
:100890000E94820CEC01892B09F044C080913C023B
:1008A00090913D028231910599F4809107039091D6
:1008B000080396958795C817D90708F05DC040E0F2
:1008C00050E06FEF70E0CE010E948D002196EDCFD9
:1008D0008C30910599F480910703909108039695C7
:1008E0008795C817D90708F047C040E05CE46FEF70
:1008F00070E0CE010E948D002196EDCF0697E1F5C4
:10090000809107039091080396958795C817D9079A
:1009100098F540E059E96FEF70E0CE010E948D003C
:100920002196EECF80912A01D0E0C0E0882391F09B
:10093000809107039091080396958795C817D9076A
:10094000D8F44FEF50E060E070E0CE010E948D00DF
:100950002196EECF80910703909108039695879595
:10096000C817D90748F440E050E06FEF70E0CE01BF
:100970000E948D002196EECF0E94980110923602BF
:10098000DF91CF9108951F920F920FB60F9211240D
:100990002F933F938F939F93AF93BF938091600268
:1009A00090916102A0916202B091630230915F0266
:1009B00023E0230F2D3758F50196A11DB11D20937B
:1009C0005F028093600290936102A0936202B093F1
:1009D00063028091640290916502A0916602B091D9
:1009E00067020196A11DB11D809364029093650278
:1009F000A0936602B0936702BF91AF919F918F91D0
:100A00003F912F910F900FBE0F901F90189526E8E1
:100A1000230F0296A11DB11DD2CF1F920F920FB6C8
:100A20000F9211242F933F934F935F936F937F9374
:100A30008F939F93AF93BF93EF93FF9388E692E0DA
:100A40000E94E902FF91EF91BF91AF919F918F9129
:100A50007F916F915F914F913F912F910F900FBEBA
:100A60000F901F9018951F920F920FB60F9211249E
:100A70002F938F939F93EF93FF93E0917802F091E0
:100A800079028081E0917E02F0917F0282FD1BC09D
:100A90009081809181028F5F8F73209182028217F3
:100AA00041F0E0918102F0E0E859FD4F958F80938D
:100AB0008102FF91EF919F918F912F910F900FBE27
:100AC0000F901F9018958081F4CFCF92DF92EF9214
:100AD000FF920F931F93E82FF92F05C001501109C2
:100AE0002109310961F1908196239417B9F305C06A
:100AF000015011092109310911F1908196239413B4
:100B0000F7CFC12CD12CE12CF12C0AC08FEFC81AE1
:100B1000D80AE80AF80A0C151D052E053F0579F0DC
:100B200080818623841791F36C2D7D2D8E2D9F2D32
:100B30001F910F91FF90EF90DF90CF90089560E0AC
:100B400070E080E090E01F910F91FF90EF90DF90B8
:100B5000CF90089510926B0210926A0288EE93E093
:100B6000A0E0B0E080936C0290936D02A0936E02BF
:100B7000B0936F0285E391E09093690280936802DD
:100B800085EC90E0909375028093740284EC90E081
:100B9000909377028093760280EC90E090937902B4
:100BA0008093780281EC90E090937B0280937A02AC
:100BB00082EC90E090937D0280937C0286EC90E042
:100BC00090937F0280937E021092810210928202A3
:100BD00010928302109284021092060310920D0369
:100BE000109214031092150310921603109217031B
:100BF00081E080931303809310031092110392E01D
:100C000090931203809305038AE290E090930A0385
:100C1000809309030E945D0B90930F0380930E0352
:100C2000009789F12AE2FC0111922A95E9F78EE0FA
:100C300090E0909308038093070382E090E0909304
:100C40000C0380930B0380910603882341F061E03D
:100C500082E00E94420160E082E00E94F600E0EB48
:100C6000F0E0E491F0E0EE0FFF1FEC55FF4F8591AF
:100C700094919093190380931803E2E9F0E0E491D2
:100C8000E0931A03089510920A0310920903109238
:100C9000080310920703D1CF789484B5826084BD95
:100CA00084B5816084BD85B5826085BD85B5816070
:100CB00085BD80916E00816080936E0010928100EE
:100CC00080918100826080938100809181008160A9
:100CD000809381008091800081608093800080916A
:100CE000B10084608093B1008091B00081608093F6
:100CF000B00080917A00846080937A0080917A00BD
:100D0000826080937A0080917A00816080937A007B
:100D100080917A00806880937A001092C100E091FF
:100D20007802F091790282E08083E0917802F0917C
:100D300079021082E0917402F09175021082E091C4
:100D40007602F091770280E1808310928002E09138
:100D50007C02F0917D0286E08083E0917A02F0913E
:100D60007B02808180618083E0917A02F0917B0236
:100D7000808188608083E0917A02F0917B0280819B
:100D800080688083E0917A02F0917B0280818F7D80
:100D9000808380910B0390910C0397FD34C061E038
:100DA0000E94420160E080910B030E94F60081E006
:100DB000809306030E94980120910D03222359F18C
:100DC000E0900E03F0900F03215001F130E050E06D
:100DD00040E06FEF7FEF80E090E00E94160BF7019C
:100DE0004091090350910A03CF018E199F0984177E
:100DF000950778F44081429FC001439F900D1124D4
:100E000090833196EDCF10920603D4CF30E020E0EE
:100E1000E6CF10920D0361E083E00E94420160E0A2
:100E200084E00E9442016FEF70E080E090E00E9459
:100E3000780350E0852E50E0952EC1E062E1A62EA9
:100E4000B12C0E9473016B017C0149E1442E512CAD
:100E5000612C712C0E9473016C197D098E099F0908
:100E6000683E734081059105A8F321E0421A5108BC
:100E70006108710888EEC80E83E0D81EE11CF11CE1
:100E8000411451046104710429F788E692E00E943C
:100E9000C902181619060CF00EC188E692E00E94ED
:100EA000A70220912C0230912D02F901E25CFD4F46
:100EB0008A3009F029C2121613060CF025C21082DE
:100EC00010922D0210922C0264E571E08EE392E004
:100ED0000E94820C892B41F4C0932A016FEF70E0CD
:100EE00080E090E00E9478036CE671E08EE392E08F
:100EF0000E94820C892B41F410922A0160E070E07C
:100F00008FEF90E00E94780363E871E08EE392E057
:100F10000E94820C892B89F466E871E089E091E0F7
:100F20000E948B0C80912A01882309F4F5C16FEF90
:100F300070E080E090E00E94780363E971E08EE366
:100F400092E00E94820C892B61F460E07FEF80E0E8
:100F500090E00E94780366E971E089E091E00E94E8
:100F60008B0C62EA71E08EE392E00E94820C892B86
:100F700081F46BE471E089E091E00E948B0CB09207
:100F80003D02A0923C0260E070E08FEF90E00E9492
:100F9000780363EB71E08EE392E00E94820C892B70
:100FA00091F46BE471E089E091E00E948B0C8CE09D
:100FB00090E090933D0280933C0260E07CE48FEFF0
:100FC00090E00E94780366EC71E08EE392E00E946C
:100FD000820C892B91F46BE471E089E091E00E942E
:100FE0008B0CE6E0F0E0F0933D02E0933C0260E021
:100FF00079E98FEF90E00E94780366E471E08EE378
:1010000092E00E94820C892B61F466E471E089E031
:1010100091E00E948B0C6FEF7FEF8FEF90E00E94CA
:10102000780366ED71E08EE392E00E94820C892BDA
:1010300031F466ED71E089E091E00E948B0C6EED79
:1010400071E08EE392E00E94820C892B21F482E011
:1010500091E00E94ED036AEE71E08EE392E00E945F
:10106000820C892B11F4C0933B0266EF71E08EE392
:1010700092E00E94820C892B21F410923B020E9484
:101080000A0461E072E08EE392E00E94820C892BF8
:1010900091F410923B020E940A04C0932A016FEF60
:1010A00070E080E090E00E9478036CE072E089E0FC
:1010B00091E00E948B0C61E083E00E94F60083E2E5
:1010C00090E00197F1F760E083E00E94F600E4E928
:1010D000F0E06491E2EBF0E08491E82FF0E0EE0FB5
:1010E000FF1FE859FF4F8591949100E412E42FE02F
:1010F00030E0462F0E946505611571058105910557
:1011000029F06F5F7F4F8F4F9F4F9F700E94640A3F
:1011100020E030E044E153E40E94F2092B013C015D
:101120004092320250923302609234027092350241
:1011300066E871E089E091E00E94820C892B41F021
:101140006CE072E089E091E00E94820C892BB9F595
:101150003090010120E030E040E051E4C301B201F1
:101160000E94ED0918160CF4E1C0332009F4E4C024
:1011700080910001882309F4DBC02FB7F894809197
:10118000600290916102A0916202B09163022FBF50
:1011900080932E0290932F02A0933002B0933102DD
:1011A00080912A01882309F4BCC010922A018FE79C
:1011B00091E00E94ED03109201011092000166E996
:1011C00071E089E091E00E94820C892B01F520E01A
:1011D00030E040E051E4609132027091330280913E
:1011E0003402909135020E94ED09181684F088E1CE
:1011F00092E00E94ED036FEF7FEF8FEF90E00E948F
:10120000780366E471E089E091E00E948B0C6BE466
:1012100071E089E091E00E94820C892BC9F5609011
:101220003C0270903D022090320230903302409098
:10123000340250903502B30166507109072E000C3C
:10124000880B990B0E94660AA20191010E94ED0988
:1012500087FF1EC0B301770C880B990B0E94660AAA
:101260009B01AC01C201B1010E94ED09181684F086
:1012700081E292E00E94ED036FEF7FEF8FEF90E04D
:101280000E94780366E471E089E091E00E948B0C93
:1012900080913B02882309F481C02FB7F894809194
:1012A000600290916102A0916202B09163022FBF2F
:1012B00040913702509138026091390270913A02A0
:1012C000841B950BA60BB70B843F9140A105B1057C
:1012D00008F464C08091360281116CC0712C612CBD
:1012E0008091070390910803969587956816790673
:1012F00008F03DC04FEF50E0BA01C3010E948D00DD
:101300002FEF621A720AECCF80832F5F3F4F30932A
:101310002D0220932C02B9CD60E070E08FEF90E0B9
:101320000ACEC0932A0187E691E043CF332021F013
:1013300080910001811143CF8FB7F8942091600212
:101340003091610240916202509163028FBF80919F
:101350002A01811107C060E070E08FEF90E00E94E9
:1013600099032DCF6FEF70E080E090E0F8CF0E94FE
:101370009801C09336022FB7F89480916002909143
:101380006102A0916202B09163022FBF8093370285
:1013900090933802A0933902B0933A0281149104D9
:1013A00009F44FCD0E94D502882309F44ACD0E944A
:1013B000000047CD0E940A04DECF80910E03909179
:1013C0000F030E94F90B80910B0390910C0397FD82
:1013D00003C060E00C94420108950E94A10A08F441
:1013E00081E008950E94060A0C94DC0A0E94D50A46
:1013F00058F00E94CE0A40F029F45F3F29F00C9487
:10140000C50A51110C94100B0C94CB0A0E94ED0AE2
:1014100068F39923B1F3552391F3951B550BBB2723
:10142000AA2762177307840738F09F5F5F4F220F68
:10143000331F441FAA1FA9F335D00E2E3AF0E0E85F
:1014400032D091505040E695001CCAF72BD0FE2FA9
:1014500029D0660F771F881FBB1F2617370748073D
:10146000AB07B0E809F0BB0B802DBF01FF279358F5
:101470005F4F3AF09E3F510578F00C94C50A0C94EA
:10148000100B5F3FE4F3983ED4F38695779567950C
:10149000B795F7959F5FC9F7880F911D969587952A
:1014A00097F90895E1E0660F771F881FBB1F621749
:1014B00073078407BA0720F0621B730B840BBA0B07
:1014C000EE1F88F7E0950895E89409C097FB3EF475
:1014D00090958095709561957F4F8F4F9F4F992381
:1014E000A9F0F92F96E9BB279395F69587957795FF
:1014F0006795B795F111F8CFFAF4BB0F11F460FFBF
:101500001BC06F5F7F4F8F4F9F4F16C0882311F016
:1015100096E911C0772321F09EE8872F762F05C02A
:10152000662371F096E8862F70E060E02AF09A95C5
:10153000660F771F881FDAF7880F9695879597F9BA
:101540000895990F0008550FAA0BE0E8FEEF161654
:101550001706E807F907C0F012161306E407F507A7
:1015600098F0621B730B840B950B39F40A2661F01B
:10157000232B242B252B21F408950A2609F4A140BE
:10158000A6958FEF811D811D089597F99F6780E8CB
:1015900070E060E008959FEF80EC089500240A94C5
:1015A0001616170618060906089500240A9412163E
:1015B0001306140605060895092E0394000C11F471
:1015C000882352F0BB0F40F4BF2B11F460FF04C01E
:1015D0006F5F7F4F8F4F9F4F089557FD9058440F77
:1015E000551F59F05F3F71F04795880F97FB991F82
:1015F00061F09F3F79F0879508951216130614063F
:10160000551FF2CF4695F1DF08C0161617061806CB
:10161000991FF1CF86957105610508940895E894A6
:10162000BB2766277727CB0197F90895052E97FBEF
:101630001EF400940E942D0B57FD07D00E94350B1D
:1016400007FC03D04EF40C942D0B5095409530952B
:1016500021953F4F4F4F5F4F08959095809570951E
:1016600061957F4F8F4F9F4F0895A1E21A2EAA1BBD
:10167000BB1BFD010DC0AA1FBB1FEE1FFF1FA21742
:10168000B307E407F50720F0A21BB30BE40BF50B3F
:10169000661F771F881F991F1A9469F760957095C8
:1016A000809590959B01AC01BD01CF010895EE0F8F
:1016B000FF1F0590F491E02D09940F931F93CF9392
:1016C000DF938230910510F482E090E0E0911D03F9
:1016D000F0911E0330E020E0B0E0A0E0309799F4F4
:1016E0002115310509F44AC0281B390B2430310576
:1016F000D8F58A819B816115710589F1FB0193837E
:101700008283FE0111C040815181028113814817FB
:101710005907E0F04817590799F4109761F01296AD
:101720000C93129713961C933296CF01DF91CF91B1
:101730001F910F91089500931D0310931E03F4CF82
:101740002115310551F04217530738F0A901DB018B
:101750009A01BD01DF01F801C1CFEF01F9CF9093EC
:101760001E0380931D03CDCFFE01E20FF31F819373
:1017700091932250310939832883D7CF20911B03BD
:1017800030911C03232B41F420912D0130912E0127
:1017900030931C0320931B0320912B0130912C01CB
:1017A0002115310541F42DB73EB740912F015091DD
:1017B0003001241B350BE0911B03F0911C03E21751
:1017C000F307A0F42E1B3F0B2817390778F0AC0164
:1017D0004E5F5F4F2417350748F04E0F5F1F509341
:1017E0001C0340931B03819391939FCFF0E0E0E0B3
:1017F0009CCFCF93DF930097E9F0FC0132971382DF
:101800001282A0911D03B0911E03ED0130E020E093
:101810001097A1F420813181820F931F20911B0327
:1018200030911C032817390709F061C0F0931C039D
:10183000E0931B03DF91CF910895EA01CE17DF07F4
:10184000E8F54A815B819E0141155105B1F7E90137
:10185000FB83EA8349915991C40FD51FEC17FD070B
:1018600061F4808191810296840F951FE90199832B
:101870008883828193819B838A83F0E0E0E01296E3
:101880008D919C9113970097B9F52D913C911197EB
:10189000CD010296820F931F20911B0330911C03F0
:1018A0002817390739F6309751F510921E03109218
:1018B0001D03B0931C03A0931B03BCCFD383C2832F
:1018C00040815181840F951FC817D90761F44E5F7D
:1018D0005F4F88819981480F591F518340838A81C6
:1018E0009B81938382832115310509F0B0CFF0935A
:1018F0001E03E0931D039ECFFD01DC01C0CF1382C8
:101900001282D7CFFB01DC018D910190801901106B
:10191000D9F3990B0895FB01DC0101900D92002091
:10192000E1F7089510E0C2E6D0E004C0FE010E9495
:0E193000570B2196C336D107C9F7F894FFCFA5
:10193E00010176302E312E3400556E636F6E6E655A
:10194E0063746564000000000000000000000000E9
:10195E00000000000000000000000100001F0380D6
:10196E0000000000000B036B0298025803C902A787
:10197E0002BB020D0A0049646C6500416C74697407
:10198E0075646500436170747572655F466C61675E
:10199E005F53746172745F426C756500436170745D
:1019AE007572655F466C61675F53746172745F52E6
:1019BE00656400474D5F436170747572655F466C78
:1019CE00616700474D5F5761636B5F415F4D6F6CA1
:1019DE006500474D5F416C7469747564655F486955
:1019EE00676800474D5F416C7469747564655F4D3F
:1019FE00656469756D00474D5F416C7469747564FB
:101A0E00655F4C6F770053746F7070656400476547
:101A1E00745F56657273696F6E0053746172745F92
:101A2E00426C696E6B0053746F705F426C696E6BC3
:101A3E0000446973636F6E6E65637400556E636FF9
:101A4E006E6E656374656400574D5F506F696E749A
:0A1A5E0000415F506F696E740000D4
:00000001FF
