:100000000C9463000C948B000C948B000C948B006C
:100010000C948B000C948B000C948B000C948B0034
:100020000C948B000C948B000C948B000C948B0024
:100030000C948B000C948B000C948B000C948B0014
:100040000C94AC040C948B000C941C050C94F604DA
:100050000C948B000C948B000C948B000C948B00F4
:100060000C948B000C948B000000000023002600F1
:10007000290000000000240027002A0000000008DA
:10008000000201000003040700000000000000005F
:10009000010204081020408001020408102001021F
:1000A0000408102000000000250028002B00040494
:1000B0000404040404040202020202020303030310
:1000C00003039305BA0911241FBECFEFD8E0DEBFAA
:1000D000CDBF12E0A0E0B1E0E8EFF8E102C005908A
:1000E0000D92A832B107D9F723E0A8E2B2E001C02F
:1000F0001D92AD31B207E1F710E0C2E6D0E004C0D6
:100100002197FE010E94340BC136D107C9F70E9426
:1001100035060C946F0C0C9400004F925F926F9216
:100120007F928F929F92AF92BF92FF922091050390
:10013000309106038217930708F043C02B01662411
:100140007724852E962EA72EBB24B82DA42F209180
:100150000B03F42C222391F0E22FF0E0E49DD00178
:10016000E59DB00DF49DB00D1124FB2E289D40019E
:100170001124B92D249F90011124A32FE091110384
:1001800020910C0330910D0350910E03E51323C011
:10019000FC01EE0FFF1F8E0F9F1F820F931FE09138
:1001A0000E03E80FF92FF11DF082E0910F03E80F25
:1001B000F92FF11DB08320911003820F911DFC01D6
:1001C000A083FF90BF90AF909F908F907F906F9093
:1001D0005F904F900895880F991F880F991F820F85
:1001E000931FE80FF92FF11D1082D9CF90E0FC0189
:1001F000E458FF4F2491FC01E057FF4F3491FC017C
:10020000E255FF4FE491EE23C9F0222339F0233069
:1002100001F1A8F4213019F1223029F1F0E0EE0FBC
:10022000FF1FEC55FF4FA591B4918FB7F894EC9157
:10023000611126C030953E233C938FBF089527302F
:10024000A9F02830C9F0243049F7809180008F7DD3
:1002500003C0809180008F7780938000DFCF84B5CA
:100260008F7784BDDBCF84B58F7DFBCF8091B000CD
:100270008F778093B000D2CF8091B0008F7DF9CF7F
:100280003E2BDACFCF93DF9390E0FC01E057FF4F96
:10029000249182559F4FFC0184918823D1F090E0F6
:1002A000880F991FFC01EE58FF4FA591B491FC01F6
:1002B000EC55FF4FC591D49161110EC09FB7F894D2
:1002C0008C91E22FE0958E238C932881E223E883A2
:1002D0009FBFDF91CF9108958FB7F894EC91E22BF7
:1002E000EC938FBFF6CF3FB7F89480916202909164
:1002F0006302A0916402B091650226B5A89B05C077
:100300002F3F19F00196A11DB11D3FBFBA2FA92F94
:10031000982F8827BC01CD01620F711D811D911D91
:1003200042E0660F771F881F991F4A95D1F70895FD
:100330000F931F93CF93DF93CDB7DEB729970FB6F7
:10034000F894DEBF0FBECDBF80910C0390910D03DA
:10035000892B09F47CC00E94730100911203109153
:10036000130320911403309115036017710782075E
:10037000930740F460931203709313038093140364
:10038000909315030091120310911303209114030D
:1003900030911503601B710B820B930B6C32714013
:1003A00081059105C0F2F8948091070390910803AC
:1003B0009A838983E0910C03F0910D03DF0111967C
:1003C0008081898790910303E0911603F0911703D0
:1003D00080911803992309F445C09081982B988740
:1003E0009081809589238F838F818C8388E08B8394
:1003F00058856F8149853B812C8189819A81508301
:1004000047FD252F3A952083262F39F0441F00C041
:1004100000006083000000C0F2CF38E04D9160839F
:100420000000019761F7F0931703E09316034987E3
:100430003B832C839A83898378940E947301609311
:10044000120370931303809314039093150329965A
:100450000FB6F894DEBF0FBECDBFDF91CF911F91D5
:100460000F9108959081982B98879081809589238A
:100470008F838F818E8388E08D8358856F81498536
:100480003D812E8189819A81508347FD252F00C0AF
:1004900000C0208300C000C000C000C000C0608356
:1004A0000000262F3A9541F0441F000000C000C014
:1004B00000C000C000C0E8CF38E04D9100C06083AC
:1004C00000C0019709F7F0931703E09316034987DB
:1004D0003D832E83AFCFAF92BF92CF92DF92EF9248
:1004E000FF920F931F93CF93DF936C017B018B01DE
:1004F000040F151FEB015E01AE18BF08C017D1072E
:1005000059F06991D601ED91FC910190F081E02DB7
:10051000C6010995892B79F7C501DF91CF911F910C
:100520000F91FF90EF90DF90CF90BF90AF90089524
:10053000FC01538D448D252F30E0842F90E0821BE9
:10054000930B541710F0CF96089501970895FC016E
:10055000918D828D981761F0A28DAE0FBF2FB11DC6
:100560005D968C91928D9F5F9F73928F90E008951E
:100570008FEF9FEF0895FC01918D828D981731F0D8
:10058000828DE80FF11D858D90E008958FEF9FEF2C
:100590000895FC01918D228D892F90E0805C9F4F02
:1005A000821B91098F739927089586E692E00E9435
:1005B000C90221E0892B09F420E0822F089580E010
:1005C00090E0892B29F00E94D50281110C94000043
:1005D0000895FC01A48DA80FB92FB11DA35ABF4FD8
:1005E0002C91848D90E001968F739927848FA68932
:1005F000B7892C93A089B1898C91837080648C9386
:10060000938D848D981306C00288F389E02D808134
:100610008F7D80830895EF92FF920F931F93CF9366
:10062000DF93EC0181E0888F9B8D8C8D98131AC02D
:10063000E889F989808185FF15C09FB7F894EE8914
:10064000FF896083E889F989808183708064808371
:100650009FBF81E090E0DF91CF911F910F91FF90BC
:10066000EF900895F62E0B8D10E00F5F1F4F0F7364
:100670001127E02E8C8D8E110CC00FB607FCFACF1F
:10068000E889F989808185FFF5CFCE010E94E902D2
:10069000F1CFEB8DEC0FFD2FF11DE35AFF4FF082F0
:1006A0009FB7F8940B8FEA89FB8980818062CFCF56
:1006B000CF93DF93EC01888D8823B9F0AA89BB8999
:1006C000E889F9898C9185FD03C0808186FD0DC084
:1006D0000FB607FCF7CF8C9185FFF2CF808185FFA5
:1006E000EDCFCE010E94E902E9CFDF91CF910895CD
:1006F000CF92DF92EF92FF92CF93DF936B017C0159
:10070000D0E0C0E08091050390910603C817D90797
:1007100048F4B701A601CE010E948D000E94980105
:100720002196F0CFDF91CF91FF90EF90DF90CF90A7
:100730000895CF92DF92EF92FF92CF93DF93C09113
:100740002802D0912902E0910503F0910603CE170B
:10075000DF0720F5C0902C02D0902D02E0902E02F1
:10076000F0902F022C193D094E095F092233310503
:100770004105510560F0AB01BC01CE010E948D0026
:100780000E9498012196D0932902C0932802DF91FC
:10079000CF91FF90EF90DF90CF90089581E080930C
:1007A00000011092290210922802F1CFCF93DF931B
:1007B000FC0101900020E9F73197AF01481B590B6C
:1007C000BC0186E692E00E946B02EC0142E050E040
:1007D00062E471E086E692E00E946B028C0F9D1F3E
:1007E000DF91CF910895CF93DF9365E471E088E0C6
:1007F00091E00E945F0CEC01892B99F48091050334
:100800009091060396958795C817D90708F09DC063
:100810004FEF5FEF6FEF70E0CE010E948D002196E9
:10082000EDCF65E971E088E091E00E945F0CEC019A
:10083000892B99F4809105039091060396958795ED
:10084000C817D90708F081C040E05FEF60E070E0B2
:10085000CE010E948D002196EDCF6AE471E088E020
:1008600091E00E945F0CEC01892B09F044C080915B
:100870003A0290913B028231910599F480910503EF
:100880009091060396958795C817D90708F05DC023
:1008900040E050E06FEF70E0CE010E948D002196A5
:1008A000EDCF8C30910599F480910503909106036A
:1008B00096958795C817D90708F047C040E05CE4D3
:1008C0006FEF70E0CE010E948D002196EDCF06976C
:1008D000E1F5809105039091060396958795C817D9
:1008E000D90798F540E059E96FEF70E0CE010E941A
:1008F0008D002196EECF80912901D0E0C0E08823C1
:1009000091F0809105039091060396958795C817FD
:10091000D907D8F44FEF50E060E070E0CE010E94BC
:100920008D002196EECF8091050390910603969558
:100930008795C817D90748F440E050E06FEF70E0A2
:10094000CE010E948D002196EECF0E949801109258
:100950003402DF91CF9108951F920F920FB60F923C
:1009600011242F933F938F939F93AF93BF938091C5
:100970005E0290915F02A0916002B091610230919D
:100980005D0223E0230F2D3758F50196A11DB11DFF
:1009900020935D0280935E0290935F02A0936002B9
:1009A000B09361028091620290916302A09164020F
:1009B000B09165020196A11DB11D809362029093D2
:1009C0006302A0936402B0936502BF91AF919F91BF
:1009D0008F913F912F910F900FBE0F901F90189500
:1009E00026E8230F0296A11DB11DD2CF1F920F92B0
:1009F0000FB60F9211242F933F934F935F936F93F2
:100A00007F938F939F93AF93BF93EF93FF9386E66C
:100A100092E00E94E902FF91EF91BF91AF919F9107
:100A20008F917F916F915F914F913F912F910F9097
:100A30000FBE0F901F9018951F920F920FB60F9236
:100A400011242F938F939F93EF93FF93E09176025E
:100A5000F09177028081E0917C02F0917D0282FD2D
:100A60001BC0908180917F028F5F8F7320918002E5
:100A7000821741F0E0917F02F0E0EA59FD4F958F37
:100A800080937F02FF91EF919F918F912F910F9013
:100A90000FBE0F901F9018958081F4CFCF92DF92F8
:100AA000EF92FF920F931F93E82FF92F05C001508B
:100AB00011092109310961F1908196239417B9F345
:100AC00005C0015011092109310911F190819623C6
:100AD0009413F7CFC12CD12CE12CF12C0AC08FEF4D
:100AE000C81AD80AE80AF80A0C151D052E053F0594
:100AF00079F080818623841791F36C2D7D2D8E2DC6
:100B00009F2D1F910F91FF90EF90DF90CF90089550
:100B100060E070E080E090E01F910F91FF90EF9017
:100B2000DF90CF900895109269021092680288EECB
:100B300093E0A0E0B0E080936A0290936B02A093F0
:100B40006C02B0936D0284E391E09093670280930E
:100B5000660285EC90E0909373028093720284ECBD
:100B600090E0909375028093740280EC90E09093F3
:100B700077028093760281EC90E0909379028093E3
:100B8000780282EC90E090937B0280937A0286EC6C
:100B900090E090937D0280937C0210927F021092ED
:100BA000800210928102109282021092040310922D
:100BB0000B0310921203109213031092140310925D
:100BC000150381E08093110380930E0310920F03AD
:100BD00092E090931003809303038AE290E0909355
:100BE0000803809307030E943A0B90930D038093B0
:100BF0000C03009789F12AE2FC0111922A95E9F78A
:100C00008EE090E0909306038093050382E090E0ED
:100C100090930A038093090380910403882341F091
:100C200061E082E00E94420160E082E00E94F60002
:100C3000E0EBF0E0E491F0E0EE0FFF1FEC55FF4F2A
:100C4000859194919093170380931603E2E9F0E065
:100C5000E491E0931803089510920803109207039B
:100C60001092060310920503D1CF789484B5826068
:100C700084BD84B5816084BD85B5826085BD85B540
:100C8000816085BD80916E00816080936E001092BE
:100C90008100809181008260809381008091810039
:100CA00081608093810080918000816080938000CA
:100CB0008091B10084608093B1008091B000816028
:100CC0008093B00080917A00846080937A00809154
:100CD0007A00826080937A0080917A0081608093AC
:100CE0007A0080917A00806880937A001092C10027
:100CF000E0917602F091770282E08083E0917602C3
:100D0000F09177021082E0917202F09173021082EA
:100D1000E0917402F091750280E1808310927E026E
:100D2000E0917A02F0917B0286E08083E091780284
:100D3000F0917902808180618083E0917802F09166
:100D40007902808188608083E0917802F091790255
:100D5000808180688083E0917802F09179028081BF
:100D60008F7D80838091090390910A0397FD34C0A1
:100D700061E00E94420160E0809109030E94F60058
:100D800081E0809304030E94980120910B032223A9
:100D900059F1E0900C03F0900D03215001F130E087
:100DA00050E040E06FEF7FEF80E090E00E94F30AB8
:100DB000F7014091070350910803CF018E199F0955
:100DC0008417950778F44081429FC001439F900D9E
:100DD000112490833196EDCF10920403D4CF30E0EC
:100DE00020E0E6CF10920B0361E083E00E94420115
:100DF00060E084E00E9442016FEF70E080E090E0EC
:100E00000E94780350E0852E50E0952EC1E062E10B
:100E1000A62EB12C0E9473016B017C0149E1442E86
:100E2000512C612C712C0E9473016C197D098E0963
:100E30009F09683E734081059105A8F321E0421A9D
:100E400051086108710888EEC80E83E0D81EE11CC5
:100E5000F11C411451046104710429F786E692E003
:100E60000E94C902181619060CF00EC186E692E01F
:100E70000E94A70220912A0230912B02F901E45C22
:100E8000FD4F8A3009F021C2121613060CF01DC264
:100E9000108210922B0210922A0263E571E08CE31B
:100EA00092E00E945F0C892B41F4C09329016FEFFF
:100EB00070E080E090E00E9478036BE671E08CE3E4
:100EC00092E00E945F0C892B41F41092290160E0AE
:100ED00070E08FEF90E00E94780362E871E08CE3AD
:100EE00092E00E945F0C892B89F465E871E088E04C
:100EF00091E00E94680C80912901882309F4EDC1DA
:100F00006FEF70E080E090E00E94780362E971E0AA
:100F10008CE392E00E945F0C892B61F460E07FEF2C
:100F200080E090E00E94780365E971E088E091E05C
:100F30000E94680C61EA71E08CE392E00E945F0C11
:100F4000892B81F46AE471E088E091E00E94680CEA
:100F5000B0923B02A0923A0260E070E08FEF90E026
:100F60000E94780362EB71E08CE392E00E945F0CD8
:100F7000892B91F46AE471E088E091E00E94680CAA
:100F80008CE090E090933B0280933A0260E07CE436
:100F90008FEF90E00E94780365EC71E08CE392E0C3
:100FA0000E945F0C892B91F46AE471E088E091E083
:100FB0000E94680CE6E0F0E0F0933B02E0933A0216
:100FC00060E079E98FEF90E00E94780365E471E0DA
:100FD0008CE392E00E945F0C892B61F465E471E080
:100FE00088E091E00E94680C6FEF7FEF8FEF90E058
:100FF0000E94780365ED71E08CE392E00E945F0C43
:10100000892B31F465ED71E088E091E00E94680C75
:101010006DED71E08CE392E00E945F0C892B21F46E
:1010200081E091E00E94D60369EE71E08CE392E0EA
:101030000E945F0C892B11F4C093390265EF71E0B7
:101040008CE392E00E945F0C892B21F4109239020C
:101050000E94F30360E072E08CE392E00E945F0C78
:10106000892B91F4109239020E94F303C093290155
:101070006FEF70E080E090E00E9478036BE072E038
:1010800088E091E00E94680C61E083E00E94F60035
:1010900083E290E00197F1F760E083E00E94F600C0
:1010A000E4E9F0E06491E2EBF0E08491E82FF0E015
:1010B000EE0FFF1FE859FF4F8591949100E412E471
:1010C0002FE030E0462F0E944E0561157105810525
:1010D000910529F06F5F7F4F8F4F9F4F9F700E9448
:1010E000410A20E030E044E153E40E94CF092B01A3
:1010F0003C01409230025092310260923202709272
:10110000330265E871E088E091E00E945F0C892B72
:1011100041F06BE072E088E091E00E945F0C892B67
:1011200081F53090000120E030E040E051E4C3015F
:10113000B2010E94CA0918160CF4D9C0332009F470
:10114000D8C02FB7F89480915E0290915F02A09171
:101150006002B09161022FBF80932C0290932D0208
:10116000A0932E02B0932F0280912901882309F4C5
:10117000B9C0109229018EE791E00E94D603109227
:10118000000165E971E088E091E00E945F0C892B25
:1011900001F520E030E040E051E4609130027091D0
:1011A000310280913202909133020E94CA091816CE
:1011B00084F087E192E00E94D6036FEF7FEF8FEF1C
:1011C00090E00E94780365E471E088E091E00E947D
:1011D000680C6AE471E088E091E00E945F0C892B62
:1011E000C9F560903A0270903B0220903002309036
:1011F00031024090320250903302B30166507109BF
:10120000072E000C880B990B0E94430AA201910142
:101210000E94CA0987FF1EC0B301770C880B990B87
:101220000E94430A9B01AC01C201B1010E94CA099C
:10123000181684F080E292E00E94D6036FEF7FEFF1
:101240008FEF90E00E94780365E471E088E091E020
:101250000E94680C80913902882309F47CC02FB762
:10126000F89480915E0290915F02A0916002B0912B
:1012700061022FBF409135025091360260913702D2
:1012800070913802841B950BA60BB70B843F9140DD
:10129000A105B10508F45FC080913402811167C0D7
:1012A000712C612C8091050390910603969587958A
:1012B00068167906C8F54FEF50E0BA01C3010E94E5
:1012C0008D002FEF621A720AEDCF80832F5F3F4FA0
:1012D00030932B0220932A02C1CD60E070E08FEFA3
:1012E00090E012CEC093290186E691E046CF3110FE
:1012F00048CF8FB7F89420915E0230915F02409101
:101300006002509161028FBF80912901811107C055
:1013100060E070E08FEF90E00E94990332CF6FEFB2
:1013200070E080E090E0F8CF0E949801C093340212
:101330002FB7F89480915E0290915F02A0916002B5
:10134000B09161022FBF8093350290933602A09333
:101350003702B09338028114910409F45BCD0E94E6
:10136000D502882309F456CD0E94000053CD0E9477
:10137000F303DECF80910C0390910D030E94D60BF6
:101380008091090390910A0397FD03C060E00C94DB
:10139000420108950E947E0A08F481E008950E94A7
:1013A000E3090C94B90A0E94B20A58F00E94AB0AF1
:1013B00040F029F45F3F29F00C94A20A51110C94DB
:1013C000ED0A0C94A80A0E94CA0A68F39923B1F3A3
:1013D000552391F3951B550BBB27AA27621773075B
:1013E000840738F09F5F5F4F220F331F441FAA1FEF
:1013F000A9F335D00E2E3AF0E0E832D091505040AB
:10140000E695001CCAF72BD0FE2F29D0660F771F58
:10141000881FBB1F261737074807AB07B0E809F03E
:10142000BB0B802DBF01FF2793585F4F3AF09E3FC3
:10143000510578F00C94A20A0C94ED0A5F3FE4F396
:10144000983ED4F3869577956795B795F7959F5F06
:10145000C9F7880F911D9695879597F90895E1E052
:10146000660F771F881FBB1F621773078407BA07B1
:1014700020F0621B730B840BBA0BEE1F88F7E0950C
:101480000895E89409C097FB3EF490958095709577
:1014900061957F4F8F4F9F4F9923A9F0F92F96E9C0
:1014A000BB279395F695879577956795B795F11135
:1014B000F8CFFAF4BB0F11F460FF1BC06F5F7F4FD2
:1014C0008F4F9F4F16C0882311F096E911C07723E4
:1014D00021F09EE8872F762F05C0662371F096E8ED
:1014E000862F70E060E02AF09A95660F771F881FBC
:1014F000DAF7880F9695879597F90895990F000860
:10150000550FAA0BE0E8FEEF16161706E807F907D5
:10151000C0F012161306E407F50798F0621B730B70
:10152000840B950B39F40A2661F0232B242B252BF1
:1015300021F408950A2609F4A140A6958FEF811D94
:10154000811D089597F99F6780E870E060E0089535
:101550009FEF80EC089500240A94161617061806CB
:101560000906089500240A941216130614060506A7
:101570000895092E0394000C11F4882352F0BB0F38
:1015800040F4BF2B11F460FF04C06F5F7F4F8F4F9B
:101590009F4F089557FD9058440F551F59F05F3FD6
:1015A00071F04795880F97FB991F61F09F3F79F085
:1015B00087950895121613061406551FF2CF469507
:1015C000F1DF08C0161617061806991FF1CF869589
:1015D0007105610508940895E894BB27662777276D
:1015E000CB0197F90895052E97FB1EF400940E94F5
:1015F0000A0B57FD07D00E94120B07FC03D04EF4D4
:101600000C940A0B50954095309521953F4F4F4FC4
:101610005F4F089590958095709561957F4F8F4F9E
:101620009F4F0895A1E21A2EAA1BBB1BFD010DC0FE
:10163000AA1FBB1FEE1FFF1FA217B307E407F50782
:1016400020F0A21BB30BE40BF50B661F771F881F5E
:10165000991F1A9469F760957095809590959B01F4
:10166000AC01BD01CF010895EE0FFF1F0590F4916D
:10167000E02D09940F931F93CF93DF938230910550
:1016800010F482E090E0E0911B03F0911C0330E045
:1016900020E0B0E0A0E0309799F42115310509F47D
:1016A0004AC0281B390B24303105D8F58A819B812B
:1016B0006115710589F1FB0193838283FE0111C0DD
:1016C000408151810281138148175907E0F0481782
:1016D000590799F4109761F012960C93129713968C
:1016E0001C933296CF01DF91CF911F910F910895F6
:1016F00000931B0310931C03F4CF2115310551F007
:101700004217530738F0A901DB019A01BD01DF013F
:10171000F801C1CFEF01F9CF90931C0380931B0315
:10172000CDCFFE01E20FF31F819391932250310937
:1017300039832883D7CF2091190330911A03232BA3
:1017400041F420912C0130912D0130931A03209304
:10175000190320912A0130912B012115310541F403
:101760002DB73EB740912E0150912F01241B350B10
:10177000E0911903F0911A03E217F307A0F42E1B6E
:101780003F0B2817390778F0AC014E5F5F4F2417E5
:10179000350748F04E0F5F1F50931A03409319030B
:1017A000819391939FCFF0E0E0E09CCFCF93DF93C4
:1017B0000097E9F0FC01329713821282A0911B037B
:1017C000B0911C03ED0130E020E01097A1F42081DE
:1017D0003181820F931F2091190330911A0328172A
:1017E000390709F061C0F0931A03E0931903DF9100
:1017F000CF910895EA01CE17DF07E8F54A815B81B2
:101800009E0141155105B1F7E901FB83EA83499136
:101810005991C40FD51FEC17FD0761F480819181A8
:101820000296840F951FE9019983888382819381B1
:101830009B838A83F0E0E0E012968D919C91139750
:101840000097B9F52D913C911197CD010296820F29
:10185000931F2091190330911A032817390739F67D
:10186000309751F510921C0310921B03B0931A038A
:10187000A0931903BCCFD383C28340815181840FCD
:10188000951FC817D90761F44E5F5F4F8881998112
:10189000480F591F518340838A819B8193838283A0
:1018A0002115310509F0B0CFF0931C03E0931B0321
:1018B0009ECFFD01DC01C0CF13821282D7CFFB0186
:1018C000DC018D91019080190110D9F3990B0895D5
:1018D000FB01DC0101900D920020E1F7089510E07A
:1018E000C2E6D0E004C0FE010E94340B2196C3364C
:0818F000D107C9F7F894FFCFFE
:1018F8000176302E312E3300556E636F6E6E656340
:101908007465640000000000000000000000000092
:101918000000000000000000000100001D0380001E
:10192800000000000B036B0298025803C902A702CB
:10193800BB020D0A0049646C6500416C74697475DA
:10194800646500436170747572655F466C61675FBA
:1019580053746172745F426C75650043617074758D
:1019680072655F466C61675F53746172745F52653C
:101978006400474D5F436170747572655F466C61C2
:101988006700474D5F5761636B5F415F4D6F6C65E3
:1019980000474D5F416C7469747564655F48696799
:1019A8006800474D5F416C7469747564655F4D6587
:1019B8006469756D00474D5F416C74697475646541
:1019C8005F4C6F770053746F70706564004765747F
:1019D8005F56657273696F6E0053746172745F420B
:1019E8006C696E6B0053746F705F426C696E6B004C
:1019F800446973636F6E6E65637400556E636F6ED2
:101A08006E656374656400574D5F506F696E74004E
:081A1800415F506F696E74001C
:00000001FF
