:100000000C9463000C948B000C948B000C948B006C
:100010000C948B000C948B000C948B000C948B0034
:100020000C948B000C948B000C948B000C948B0024
:100030000C948B000C948B000C948B000C948B0014
:100040000C9441040C948B000C94B1040C948B041C
:100050000C948B000C948B000C948B000C948B00F4
:100060000C948B000C948B000000000023002600F1
:10007000290000000000240027002A0000000008DA
:10008000000201000003040700000000000000005F
:10009000010204081020408001020408102001021F
:1000A0000408102000000000250028002B00040494
:1000B0000404040404040202020202020303030310
:1000C00003032805A90811241FBECFEFD8E0DEBF27
:1000D000CDBF11E0A0E0B1E0E6EDF6E102C0059091
:1000E0000D92A03FB107D9F722E0A0EFB1E001C027
:1000F0001D92A33EB207E1F710E0C2E6D0E004C0D3
:100100002197FE010E94230AC136D107C9F70E9438
:10011000CA050C945E0B0C9400004F925F926F9294
:100120007F928F929F92AF92BF92FF922091CB02CB
:100130003091CC028217930708F043C02B0166244C
:100140007724852E962EA72EBB24B82DA42F209180
:10015000D102F42C222391F0E22FF0E0E49DD001B3
:10016000E59DB00DF49DB00D1124FB2E289D40019E
:100170001124B92D249F90011124A32FE091D702BF
:100180002091D2023091D3025091D402E51323C0C2
:10019000FC01EE0FFF1F8E0F9F1F820F931FE09138
:1001A000D402E80FF92FF11DF082E091D502E80F9B
:1001B000F92FF11DB0832091D602820F911DFC0111
:1001C000A083FF90BF90AF909F908F907F906F9093
:1001D0005F904F900895880F991F880F991F820F85
:1001E000931FE80FF92FF11D1082D9CF90E0FC0189
:1001F000E458FF4F2491FC01E057FF4F3491FC017C
:10020000E255FF4FE491EE23C9F0222339F0233069
:1002100001F1A8F4213019F1223029F1F0E0EE0FBC
:10022000FF1FEC55FF4FA591B4918FB7F894EC9157
:10023000611126C030953E233C938FBF089527302F
:10024000A9F02830C9F0243049F7809180008F7DD3
:1002500003C0809180008F7780938000DFCF84B5CA
:100260008F7784BDDBCF84B58F7DFBCF8091B000CD
:100270008F778093B000D2CF8091B0008F7DF9CF7F
:100280003E2BDACFCF93DF9390E0FC01E057FF4F96
:10029000249182559F4FFC0184918823D1F090E0F6
:1002A000880F991FFC01EE58FF4FA591B491FC01F6
:1002B000EC55FF4FC591D49161110EC09FB7F894D2
:1002C0008C91E22FE0958E238C932881E223E883A2
:1002D0009FBFDF91CF9108958FB7F894EC91E22BF7
:1002E000EC938FBFF6CF3FB7F8948091280290919E
:1002F0002902A0912A02B0912B0226B5A89B05C025
:100300002F3F19F00196A11DB11D3FBFBA2FA92F94
:10031000982F8827BC01CD01620F711D811D911D91
:1003200042E0660F771F881F991F4A95D1F70895FD
:100330000F931F93CF93DF93CDB7DEB729970FB6F7
:10034000F894DEBF0FBECDBF8091D2029091D30250
:10035000892B09F47CC00E9473010091D80210918E
:10036000D9022091DA023091DB026017710782070F
:10037000930740F46093D8027093D9028093DA0215
:100380009093DB020091D8021091D9022091DA02F9
:100390003091DB02601B710B820B930B6C3271404E
:1003A00081059105C0F2F8948091CD029091CE0222
:1003B0009A838983E091D202F091D302DF011196F2
:1003C000808189879091C902E091DC02F091DD0281
:1003D0008091DE02992309F445C09081982B98877B
:1003E0009081809589238F838F818C8388E08B8394
:1003F00058856F8149853B812C8189819A81508301
:1004000047FD252F3A952083262F39F0441F00C041
:1004100000006083000000C0F2CF38E04D9160839F
:100420000000019761F7F093DD02E093DC02498759
:100430003B832C839A83898378940E947301609311
:10044000D8027093D9028093DA029093DB02299646
:100450000FB6F894DEBF0FBECDBFDF91CF911F91D5
:100460000F9108959081982B98879081809589238A
:100470008F838F818E8388E08D8358856F81498536
:100480003D812E8189819A81508347FD252F00C0AF
:1004900000C0208300C000C000C000C000C0608356
:1004A0000000262F3A9541F0441F000000C000C014
:1004B00000C000C000C0E8CF38E04D9100C06083AC
:1004C00000C0019709F7F093DD02E093DC02498751
:1004D0003D832E83AFCFAF92BF92CF92DF92EF9248
:1004E000FF920F931F93CF93DF936C017B018B01DE
:1004F000040F151FEB015E01AE18BF08C017D1072E
:1005000059F06991D601ED91FC910190F081E02DB7
:10051000C6010995892B79F7C501DF91CF911F910C
:100520000F91FF90EF90DF90CF90BF90AF90089524
:10053000FC01538D448D252F30E0842F90E0821BE9
:10054000930B541710F0CF96089501970895FC016E
:10055000918D828D981761F0A28DAE0FBF2FB11DC6
:100560005D968C91928D9F5F9F73928F90E008951E
:100570008FEF9FEF0895FC01918D828D981731F0D8
:10058000828DE80FF11D858D90E008958FEF9FEF2C
:100590000895FC01918D228D892F90E0805C9F4F02
:1005A000821B91098F73992708958CE292E00E9433
:1005B000C90221E0892B09F420E0822F089580E010
:1005C00090E0892B29F00E94D50281110C94000043
:1005D0000895FC01A48DA80FB92FB11DA35ABF4FD8
:1005E0002C91848D90E001968F739927848FA68932
:1005F000B7892C93A089B1898C91837080648C9386
:10060000938D848D981306C00288F389E02D808134
:100610008F7D80830895EF92FF920F931F93CF9366
:10062000DF93EC0181E0888F9B8D8C8D98131AC02D
:10063000E889F989808185FF15C09FB7F894EE8914
:10064000FF896083E889F989808183708064808371
:100650009FBF81E090E0DF91CF911F910F91FF90BC
:10066000EF900895F62E0B8D10E00F5F1F4F0F7364
:100670001127E02E8C8D8E110CC00FB607FCFACF1F
:10068000E889F989808185FFF5CFCE010E94E902D2
:10069000F1CFEB8DEC0FFD2FF11DE35AFF4FF082F0
:1006A0009FB7F8940B8FEA89FB8980818062CFCF56
:1006B000CF93DF93EC01888D8823B9F0AA89BB8999
:1006C000E889F9898C9185FD03C0808186FD0DC084
:1006D0000FB607FCF7CF8C9185FFF2CF808185FFA5
:1006E000EDCFCE010E94E902E9CFDF91CF910895CD
:1006F000CF92DF92EF92FF92CF93DF936B017C0159
:10070000D0E0C0E08091CB029091CC02C817D9070D
:1007100048F4B701A601CE010E948D000E94980105
:100720002196F0CFDF91CF91FF90EF90DF90CF90A7
:100730000895CF92DF92EF92FF92CF93DF93C09113
:10074000F001D091F101E091CB02F091CC02CE17F3
:10075000DF0720F5C090F401D090F501E090F6019C
:10076000F090F7012C193D094E095F09223331053C
:100770004105510560F0AB01BC01CE010E948D0026
:100780000E9498012196D093F101C093F001DF916E
:10079000CF91FF90EF90DF90CF90089581E080930C
:1007A00000011092F1011092F001F1CFCF93DF938D
:1007B000FC0101900020E9F73197AF01481B590B6C
:1007C000BC018CE292E00E946B02EC0142E050E03E
:1007D00062E471E08CE292E00E946B028C0F9D1F3C
:1007E000DF91CF910895CF93DF9365E471E088E0C6
:1007F00091E00E944E0BEC01892B91F48091CB0289
:100800009091CC0296958795C817D90798F54FEF28
:100810005FEF6FEF70E0CE010E948D002196EECF6A
:1008200080912901D0E0C0E0882391F08091CB0233
:100830009091CC0296958795C817D907D8F44FEFB9
:1008400050E060E070E0CE010E948D002196EECF76
:100850008091CB029091CC0296958795C817D907C5
:1008600048F440E050E06FEF70E0CE010E948D0050
:100870002196EECF0E9498011092FC01DF91CF915A
:1008800008951F920F920FB60F9211242F933F934A
:100890008F939F93AF93BF938091240290912502F1
:1008A000A0912602B09127023091230223E0230F6A
:1008B0002D3758F50196A11DB11D20932302809379
:1008C000240290932502A0932602B09327028091E0
:1008D000280290912902A0912A02B0912B02019640
:1008E000A11DB11D8093280290932902A0932A0292
:1008F000B0932B02BF91AF919F918F913F912F9118
:100900000F900FBE0F901F90189526E8230F0296A8
:10091000A11DB11DD2CF1F920F920FB60F921124BD
:100920002F933F934F935F936F937F938F939F93F7
:10093000AF93BF93EF93FF938CE292E00E94E902A2
:10094000FF91EF91BF91AF919F918F917F916F91A7
:100950005F914F913F912F910F900FBE0F901F907D
:1009600018951F920F920FB60F9211242F938F9309
:100970009F93EF93FF93E0913C02F0913D028081C1
:10098000E0914202F091430282FD1BC09081809170
:1009900045028F5F8F7320914602821741F0E091EC
:1009A0004502F0E0E45DFD4F958F80934502FF9195
:1009B000EF919F918F912F910F900FBE0F901F90ED
:1009C00018958081F4CFCF92DF92EF92FF920F9330
:1009D0001F93E82FF92F05C0015011092109310992
:1009E00061F1908196239417B9F305C00150110964
:1009F0002109310911F1908196239413F7CFC12C6D
:100A0000D12CE12CF12C0AC08FEFC81AD80AE80AC1
:100A1000F80A0C151D052E053F0579F08081862307
:100A2000841791F36C2D7D2D8E2D9F2D1F910F918D
:100A3000FF90EF90DF90CF90089560E070E080E04D
:100A400090E01F910F91FF90EF90DF90CF9008956D
:100A500010922F0210922E0288EE93E0A0E0B0E0F8
:100A60008093300290933102A0933202B09333020C
:100A700084E391E090932D0280932C0285EC90E02A
:100A8000909339028093380284EC90E090933B027B
:100A900080933A0280EC90E090933D0280933C0278
:100AA00081EC90E090933F0280933E0282EC90E0D4
:100AB000909341028093400286EC90E09093430231
:100AC0008093420210924502109246021092470211
:100AD000109248021092CA021092D1021092D802CB
:100AE0001092D9021092DA021092DB0281E0809318
:100AF000D7028093D4021092D50292E09093D6024E
:100B00008093C9028AE290E09093CE028093CD0256
:100B10000E94290A9093D3028093D202009789F110
:100B20002AE2FC0111922A95E9F78EE090E0909379
:100B3000CC028093CB0282E090E09093D00280932D
:100B4000CF028091CA02882341F061E082E00E94D6
:100B5000420160E082E00E94F600E0EBF0E0E49108
:100B6000F0E0EE0FFF1FEC55FF4F859194919093AD
:100B7000DD028093DC02E2E9F0E0E491E093DE0242
:100B800008951092CE021092CD021092CC021092D3
:100B9000CB02D1CF789484B5826084BD84B5816066
:100BA00084BD85B5826085BD85B5816085BD809138
:100BB0006E00816080936E001092810080918100B0
:100BC00082608093810080918100816080938100A8
:100BD000809180008160809380008091B10084606A
:100BE0008093B1008091B00081608093B0008091CB
:100BF0007A00846080937A0080917A00826080938A
:100C00007A0080917A00816080937A0080917A00E6
:100C1000806880937A001092C100E0913C02F091CC
:100C20003D0282E08083E0913C02F0913D0210821F
:100C3000E0913802F09139021082E0913A02F0918D
:100C40003B0280E1808310924402E0914002F091E7
:100C5000410286E08083E0913E02F0913F02808174
:100C600080618083E0913E02F0913F028081886044
:100C70008083E0913E02F0913F0280818068808312
:100C8000E0913E02F0913F0280818F7D80838091D0
:100C9000CF029091D00297FD34C061E00E944201E2
:100CA00060E08091CF020E94F60081E08093CA024A
:100CB0000E9498012091D102222359F1E090D202A2
:100CC000F090D302215001F130E050E040E06FEFAE
:100CD0007FEF80E090E00E94E209F7014091CD02B1
:100CE0005091CE02CF018E199F098417950778F491
:100CF0004081429FC001439F900D11249083319603
:100D0000EDCF1092CA02D4CF30E020E0E6CF1092AF
:100D1000D10261E083E00E94420160E084E00E9431
:100D200042016FEF70E080E090E00E94780354E9A8
:100D3000852E50E0952E60E0A62E60E0B62EC1E034
:100D40000E9473016B017C0149E1442E512C612CFE
:100D5000712C0E9473016C197D098E099F09683EF0
:100D6000734081059105A8F321E0421A51086108FA
:100D7000710888EEC80E83E0D81EE11CF11C4114F6
:100D800051046104710429F78CE292E00E94C902C7
:100D9000181619060CF0D0C08CE292E00E94A7024F
:100DA0002091F2013091F301F901EE5FFD4F8A309D
:100DB00009F07AC1121613060CF076C11082109257
:100DC000F3011092F2016AE471E082E092E00E9485
:100DD0004E0B892B41F4C09329016FEF70E080E046
:100DE00090E00E94780362E671E082E092E00E9467
:100DF0004E0B892B41F41092290160E070E08FEFD7
:100E000090E00E94780369E771E082E092E00E943E
:100E10004E0B892B89F46CE771E088E091E00E9429
:100E2000570B80912901882309F446C16FEF70E0C8
:100E300080E090E00E94780369E871E082E092E04F
:100E40000E944E0B892B31F46CE871E088E091E050
:100E50000E94570B68E971E082E092E00E944E0B1D
:100E6000892B31F46BE971E088E091E00E94570B27
:100E700062EA71E082E092E00E944E0B892B31F42D
:100E800065EA71E088E091E00E94570B65E471E04B
:100E900082E092E00E944E0B892B61F465E471E0E0
:100EA00088E091E00E94570B6FEF7FEF8FEF90E0AB
:100EB0000E9478036EEA71E082E092E00E944E0B9D
:100EC000892B31F46EEA71E088E091E00E94570BC3
:100ED00066EB71E082E092E00E944E0B892B21F4D8
:100EE00081E091E00E94D60362EC71E082E092E042
:100EF0000E944E0B892B11F4C09301026EEC71E03D
:100F000082E092E00E944E0B892B21F410920102A4
:100F10000E94F30369ED71E082E092E00E944E0BC3
:100F2000892B51F4109201020E94F30364EE71E0E8
:100F300088E091E00E94570B61E083E00E94F60098
:100F400083E290E00197F1F760E083E00E94F60011
:100F5000F4016491E2EBF0E08491E82FF0E0EE0F11
:100F6000FF1FE859FF4F8591949100E412E42FE0B0
:100F700030E0462F0E94E30461157105810591055B
:100F800029F06F5F7F4F8F4F9F4F9F700E943009F6
:100F900020E030E044E153E40E94BE081B012C0134
:100FA0002092F8013092F9014092FA015092FB012F
:100FB0006CE771E088E091E00E944E0B892B41F0D4
:100FC00064EE71E088E091E00E944E0B892B81F580
:100FD0007090000120E030E040E051E4C201B10136
:100FE0000E94B90818160CF471C0772009F470C07B
:100FF0002FB7F8948091240290912502A0912602A7
:10100000B09127022FBF8093F4019093F501A09334
:10101000F601B093F70180912901882309F451C0AA
:101020001092290185E791E00E94D60310920001F9
:1010300080910102882309F47DC02FB7F894809134
:10104000240290912502A0912602B09127022FBF81
:101050004091FD015091FE016091FF0170910002ED
:10106000841B950BA60BB70B843F9140A105B105DE
:1010700008F460C08091FC01811168C0712C612C62
:101080008091CB029091CC0296958795681679064F
:10109000D0F540E056E66FEF70E0C3010E948D008E
:1010A0002FEF621A720AECCF80832F5F3F4F30938D
:1010B000F3012093F20168CE60E070E08FEF90E0E2
:1010C000B9CEC09329018DE591E0AECF7110B0CFBC
:1010D0008FB7F89420912402309125024091260286
:1010E000509127028FBF80912901811107C060E0D4
:1010F00070E08FEF90E00E9499039ACF6FEF70E05D
:1011000080E090E0F8CF0E949801C093FC012FB7D7
:10111000F8948091240290912502A0912602B0912A
:1011200027022FBF8093FD019093FE01A093FF0142
:10113000B0930002A114B10409F402CE0E94D502BA
:10114000882309F4FDCD0E940000FACD0E94F3032C
:10115000DECF8091D2029091D3020E94C50A809185
:10116000CF029091D00297FD03C060E00C94420141
:1011700008950E946D0908F481E008950E94D20844
:101180000C94A8090E94A10958F00E949A0940F005
:1011900029F45F3F29F00C94910951110C94DC095A
:1011A0000C9497090E94B90968F39923B1F3552368
:1011B00091F3951B550BBB27AA276217730784076A
:1011C00038F09F5F5F4F220F331F441FAA1FA9F300
:1011D00035D00E2E3AF0E0E832D091505040E695EE
:1011E000001CCAF72BD0FE2F29D0660F771F881F4F
:1011F000BB1F261737074807AB07B0E809F0BB0B42
:10120000802DBF01FF2793585F4F3AF09E3F510555
:1012100078F00C9491090C94DC095F3FE4F3983E5C
:10122000D4F3869577956795B795F7959F5FC9F73E
:10123000880F911D9695879597F90895E1E0660FBF
:10124000771F881FBB1F621773078407BA0720F038
:10125000621B730B840BBA0BEE1F88F7E0950895A1
:10126000E89409C097FB3EF4909580957095619540
:101270007F4F8F4F9F4F9923A9F0F92F96E9BB27F6
:101280009395F695879577956795B795F111F8CF72
:10129000FAF4BB0F11F460FF1BC06F5F7F4F8F4FDD
:1012A0009F4F16C0882311F096E911C0772321F0D3
:1012B0009EE8872F762F05C0662371F096E8862F6B
:1012C00070E060E02AF09A95660F771F881FDAF7C2
:1012D000880F9695879597F90895990F0008550FEF
:1012E000AA0BE0E8FEEF16161706E807F907C0F0AC
:1012F00012161306E407F50798F0621B730B840BB4
:10130000950B39F40A2661F0232B242B252B21F48D
:1013100008950A2609F4A140A6958FEF811D811D2D
:10132000089597F99F6780E870E060E008959FEF67
:1013300080EC089500240A9416161706180609066C
:10134000089500240A94121613061406050608953B
:10135000092E0394000C11F4882352F0BB0F40F4C3
:10136000BF2B11F460FF04C06F5F7F4F8F4F9F4F03
:10137000089557FD9058440F551F59F05F3F71F085
:101380004795880F97FB991F61F09F3F79F08795EC
:101390000895121613061406551FF2CF4695F1DF75
:1013A00008C0161617061806991FF1CF8695710505
:1013B000610508940895E894BB2766277727CB0139
:1013C00097F90895052E97FB1EF400940E94F909E1
:1013D00057FD07D00E94010A07FC03D04EF40C947D
:1013E000F90950954095309521953F4F4F4F5F4FEC
:1013F000089590958095709561957F4F8F4F9F4F81
:101400000895A1E21A2EAA1BBB1BFD010DC0AA1F45
:10141000BB1FEE1FFF1FA217B307E407F50720F05D
:10142000A21BB30BE40BF50B661F771F881F991FD8
:101430001A9469F760957095809590959B01AC0121
:10144000BD01CF010895EE0FFF1F0590F491E02D2F
:1014500009940F931F93CF93DF938230910510F47B
:1014600082E090E0E091E102F091E20230E020E0E1
:10147000B0E0A0E0309799F42115310509F44AC095
:10148000281B390B24303105D8F58A819B816115E1
:10149000710589F1FB0193838283FE0111C04081B4
:1014A00051810281138148175907E0F04817590705
:1014B00099F4109761F012960C93129713961C935F
:1014C0003296CF01DF91CF911F910F910895009334
:1014D000E1021093E202F4CF2115310551F04217D9
:1014E000530738F0A901DB019A01BD01DF01F801C2
:1014F000C1CFEF01F9CF9093E2028093E102CDCF0B
:10150000FE01E20FF31F8193919322503109398339
:101510002883D7CF2091DF023091E002232B41F4C2
:1015200020912C0130912D013093E0022093DF02B5
:1015300020912A0130912B012115310541F42DB75D
:101540003EB740912E0150912F01241B350BE091A5
:10155000DF02F091E002E217F307A0F42E1B3F0B2D
:101560002817390778F0AC014E5F5F4F2417350715
:1015700048F04E0F5F1F5093E0024093DF028193CB
:1015800091939FCFF0E0E0E09CCFCF93DF93009763
:10159000E9F0FC01329713821282A091E102B0912E
:1015A000E202ED0130E020E01097A1F420813181CA
:1015B000820F931F2091DF023091E0022817390734
:1015C00009F061C0F093E002E093DF02DF91CF9178
:1015D0000895EA01CE17DF07E8F54A815B819E0195
:1015E00041155105B1F7E901FB83EA83499159910E
:1015F000C40FD51FEC17FD0761F48081918102961D
:10160000840F951FE90199838883828193819B834D
:101610008A83F0E0E0E012968D919C9113970097F9
:10162000B9F52D913C911197CD010296820F931F30
:101630002091DF023091E0022817390739F6309700
:1016400051F51092E2021092E102B093E002A093F1
:10165000DF02BCCFD383C28340815181840F951FA9
:10166000C817D90761F44E5F5F4F88819981480F91
:10167000591F518340838A819B81938382832115E3
:10168000310509F0B0CFF093E202E093E1029ECF82
:10169000FD01DC01C0CF13821282D7CFFB01DC0138
:1016A0008D91019080190110D9F3990B0895FB01D8
:1016B000DC0101900D920020E1F7089510E0C2E6F0
:1016C000D0E004C0FE010E94230A2196C336D10750
:0616D000C9F7F894FFCFFA
:1016D6000176302E312E3100556E636F6E6E656366
:1016E60074656400000000000000000000000000B7
:1016F600000000000000000000010000E30280007E
:10170600000000000B036B0298025803C902A702EF
:10171600BB020D0A0049646C650043617074757202
:10172600655F466C61675F53746172745F426C7586
:101736006500436170747572655F466C61675F53DF
:10174600746172745F52656400474D5F43617074E3
:101756007572655F466C616700474D5F5761636BE5
:101766005F415F4D6F6C6500474D5F4D656D6F72F4
:101776007900474D5F416C746974756465005374F4
:101786006F70706564004765745F56657273696F44
:101796006E0053746172745F426C696E6B005374B1
:1017A6006F705F426C696E6B00446973636F6E6E37
:1017B60065637400556E636F6E6E65637465640071
:00000001FF
